:1000000050C0000061C000005FC000005DC0000083
:100010005BC0000059C0000057C0000055C0000080
:1000200053C0000051C000004FC000004DC0000090
:100030004BC0000049C0000047C0000045C00000A0
:1000400043C0000041C000003FC000003DC00000B0
:100050003BC0000039C0000037C0000035C00000C0
:1000600033C0000031C00000737472696E6720668F
:10007000726F6D20504D004003A001CF0067003328
:100080000019001000A001CF006700330019000C18
:10009000000700330019000C0006000300020001F5
:1000A000000011241FBECFEFD8E0DEBFCDBF11E0AE
:1000B000A0E0B1E0EAE3F3E002C005900D92A231C6
:1000C000B107D9F702D037C19BCF259A2D9820E0F0
:1000D00034E244EF50E062E071E080EC90E0AED0BA
:1000E0002D982FEF8BE792E9215080409040E1F767
:1000F00000C0000088E690E0F2D02D9A2FEF8BE749
:1001000092E9215080409040E1F700C000008091CA
:10011000000190910101FAD0E3CFCF93DF931F92BA
:10012000CDB7DEB79FB79983F8949981811106C046
:10013000E4E6F0E060958081682360839FBF0F90C4
:10014000DF91CF910895FC01908195FFFDCF6683EB
:1001500080E008950F931F934038E5E25E07610544
:10016000710549F190F44036E9E05E0761057105DB
:10017000F1F0403CF2E15F0761057105D1F0403BD1
:10018000544061057105F9F420C04115F6E95F0797
:1001900061057105A1F04115E1EE5E07610571058C
:1001A00081F041155B446105710569F406C041E0C9
:1001B0000DC042E00BC043E009C044E007C045E089
:1001C00005C046E003C04FEF01C040E0003452E4F8
:1001D00015075FE02507310549F4E42FF0E0EE0F45
:1001E000FF1FED56FF4F2591349120C00115E2E12C
:1001F0001E07EAE72E07310549F4E42FF0E0EE0F81
:10020000FF1FEB57FF4F2591349110C00115144289
:10021000244F310549F4E42FF0E0EE0FFF1FE958B9
:10022000FF4F2591349102C020E030E04F3F19F09C
:10023000FC01358324831F910F9108958F929F9223
:10024000AF92BF92EF92FF920F931F93CF93DF93E2
:10025000EC017B0149015A01803C910519F462E0EF
:1002600080E05BDFF7012681358184819A81482F08
:100270004370440F997F942B9A8399818470880FDF
:10028000880F9B7F892B89838A818F7C832B8A832C
:100290008A81922F990F990F990F877F892B8A83D3
:1002A000E0ECF0E080818D7F8083F7014081518117
:1002B0006281738195018401CE014CDF8981886060
:1002C0008983898180618983DF91CF911F910F910B
:1002D000FF90EF90BF90AF909F908F900895CF9335
:1002E000DF93EC012196FC016491662341F080ECE0
:1002F00090E029DFFE01649121966111F8CF6DE055
:1003000080EC90E020DFDF91CF910895CF93DF93D1
:10031000FC016081662341F0EC01219680EC90E0C5
:1003200012DF69916111FACF6DE080EC90E00BDF94
:0A033000DF91CF910895F894FFCFFC
:10033A00090180250000030000626C612D626C6176
:02034A000000B1
:00000001FF
