S0110000756172745F333238702E73726563EB
S113000033C0000044C0000042C0000040C00000F3
S11300103EC000003CC000003AC0000038C00000F0
S113002036C0000034C0000032C0000030C0000000
S11300302EC000002CC000002AC0000028C0000010
S113004026C0000024C0000022C0000020C0000020
S11300501EC000001CC000001AC0000018C0000030
S113006016C0000014C0000011241FBECFEFD8E05A
S1130070DEBFCDBF11E0A0E0B1E0E6ECF2E002C0EB
S113008005900D92A830B107D9F702D01AC1B8CFA4
S1130090259A2D9860E071E080EC90E0AED02FEFCF
S11300A033ED80E3215030408040E1F700C0000090
S11300B0E0ECF0E081E02D989FEF23ED30E39150E8
S11300C020403040E1F700C0000086832D9A9FEF66
S11300D023ED30E3915020403040E1F700C00000B0
S11300E0EACFCF93DF931F92CDB7DEB79FB7998343
S11300F0F8949981811106C0E4E6F0E0609580816E
S1130100682360839FBF0F90DF91CF9108958F92F2
S11301109F92AF92BF92CF92DF92EF92FF920F9392
S11301201F93CF93DF93EC016A017B01B901A8010E
S1130130689412F876956795579547951694D1F774
S1130140D901C801072E73E1B695A79597958795B0
S11301507A95D1F7702DE881E1FF0BC04A015B016C
S1130160B694A79497948794B695A79597958795F1
S113017002C04A015B018C149D04AE04BF0468F103
S1130180C816D906EA06FB0650F1888181FF0FC024
S1130190CC0CDD1CEE1CFF1CCB01BA01A70196019F
S11301A06ED0DA01C9010197A109B10912C0C901D0
S11301B0B801689413F89695879577956795169482
S11301C0D1F7A70196015BD0DA01C9010197A10912
S11301D0B1099D838C8381E003C080E001C080E08D
S11301E0DF91CF911F910F91FF90EF90DF90CF900F
S11301F0BF90AF909F908F9008950F931F93CF93CC
S1130200DF93EC018B01803C910519F462E080E0FE
S113021068DF8A818F738A83F8012681358184811E
S11302209A81482F4370440F997F942B9A83998124
S11302308470880F880F9B7F892B89838A818F7CA8
S1130240832B8A838A81922F990F990F990F877F25
S1130250892B8A83408151816281738100E412E495
S11302602FE030E0CE0153DF998198609983998122
S113027090619983DF91CF911F910F910895A1E22D
S11302801A2EAA1BBB1BFD010DC0AA1FBB1FEE1F0C
S1130290FF1FA217B307E407F50720F0A21BB30B57
S11302A0E40BF50B661F771F881F991F1A9469F7D3
S11302B060957095809590959B01AC01BD01CF012F
S10902C00895F894FFCF3D
S10B02C6030000000300000026
S9030000FC
